{
  "contractName": "EHR",
  "abi": [
    {
      "anonymous": false,
      "inputs": [
        {
          "indexed": false,
          "internalType": "address",
          "name": "doctorId",
          "type": "address"
        }
      ],
      "name": "DoctorAdded",
      "type": "event"
    },
    {
      "anonymous": false,
      "inputs": [
        {
          "indexed": false,
          "internalType": "address",
          "name": "patientId",
          "type": "address"
        }
      ],
      "name": "PatientAdded",
      "type": "event"
    },
    {
      "anonymous": false,
      "inputs": [
        {
          "indexed": false,
          "internalType": "string",
          "name": "cid",
          "type": "string"
        },
        {
          "indexed": false,
          "internalType": "address",
          "name": "patientId",
          "type": "address"
        },
        {
          "indexed": false,
          "internalType": "address",
          "name": "doctorId",
          "type": "address"
        }
      ],
      "name": "RecordAdded",
      "type": "event"
    },
    {
      "inputs": [
        {
          "internalType": "address",
          "name": "",
          "type": "address"
        }
      ],
      "name": "doctors",
      "outputs": [
        {
          "internalType": "address",
          "name": "id",
          "type": "address"
        }
      ],
      "stateMutability": "view",
      "type": "function",
      "constant": true
    },
    {
      "inputs": [
        {
          "internalType": "address",
          "name": "",
          "type": "address"
        }
      ],
      "name": "patients",
      "outputs": [
        {
          "internalType": "address",
          "name": "id",
          "type": "address"
        }
      ],
      "stateMutability": "view",
      "type": "function",
      "constant": true
    },
    {
      "inputs": [
        {
          "internalType": "address",
          "name": "_patientId",
          "type": "address"
        }
      ],
      "name": "addPatient",
      "outputs": [],
      "stateMutability": "nonpayable",
      "type": "function"
    },
    {
      "inputs": [],
      "name": "addDoctor",
      "outputs": [],
      "stateMutability": "nonpayable",
      "type": "function"
    },
    {
      "inputs": [
        {
          "internalType": "string",
          "name": "_cid",
          "type": "string"
        },
        {
          "internalType": "string",
          "name": "_fileName",
          "type": "string"
        },
        {
          "internalType": "address",
          "name": "_patientId",
          "type": "address"
        }
      ],
      "name": "addRecord",
      "outputs": [],
      "stateMutability": "nonpayable",
      "type": "function"
    },
    {
      "inputs": [
        {
          "internalType": "address",
          "name": "_patientId",
          "type": "address"
        }
      ],
      "name": "getRecords",
      "outputs": [
        {
          "components": [
            {
              "internalType": "string",
              "name": "cid",
              "type": "string"
            },
            {
              "internalType": "string",
              "name": "fileName",
              "type": "string"
            },
            {
              "internalType": "address",
              "name": "patientId",
              "type": "address"
            },
            {
              "internalType": "address",
              "name": "doctorId",
              "type": "address"
            },
            {
              "internalType": "uint256",
              "name": "timeAdded",
              "type": "uint256"
            }
          ],
          "internalType": "struct EHR.Record[]",
          "name": "",
          "type": "tuple[]"
        }
      ],
      "stateMutability": "view",
      "type": "function",
      "constant": true
    },
    {
      "inputs": [],
      "name": "getSenderRole",
      "outputs": [
        {
          "internalType": "string",
          "name": "",
          "type": "string"
        }
      ],
      "stateMutability": "view",
      "type": "function",
      "constant": true
    },
    {
      "inputs": [
        {
          "internalType": "address",
          "name": "_patientId",
          "type": "address"
        }
      ],
      "name": "getPatientExists",
      "outputs": [
        {
          "internalType": "bool",
          "name": "",
          "type": "bool"
        }
      ],
      "stateMutability": "view",
      "type": "function",
      "constant": true
    }
  ],
  "bytecode": "0x608060405234801561001057600080fd5b50611a60806100206000396000f3fe608060405234801561001057600080fd5b50600436106100885760003560e01c806375a3f4e31161005b57806375a3f4e3146101135780637bc769ed1461011d578063a0076e841461014d578063a9583c221461017d57610088565b80630869cfbc1461008d5780633a88162e146100bd57806356daecb3146100db5780636d263ceb146100f7575b600080fd5b6100a760048036038101906100a29190611295565b6101ad565b6040516100b491906112d1565b60405180910390f35b6100c56101eb565b6040516100d29190611385565b60405180910390f35b6100f560048036038101906100f091906114dc565b6103cc565b005b610111600480360381019061010c9190611295565b610744565b005b61011b61099d565b005b61013760048036038101906101329190611295565b610b27565b6040516101449190611582565b60405180910390f35b61016760048036038101906101629190611295565b610c90565b604051610174919061174e565b60405180910390f35b61019760048036038101906101929190611295565b611142565b6040516101a491906112d1565b60405180910390f35b60006020528060005260406000206000915090508060000160009054906101000a900473ffffffffffffffffffffffffffffffffffffffff16905081565b60603373ffffffffffffffffffffffffffffffffffffffff16600160003373ffffffffffffffffffffffffffffffffffffffff1673ffffffffffffffffffffffffffffffffffffffff16815260200190815260200160002060000160009054906101000a900473ffffffffffffffffffffffffffffffffffffffff1673ffffffffffffffffffffffffffffffffffffffff16036102bf576040518060400160405280600681526020017f646f63746f72000000000000000000000000000000000000000000000000000081525090506103c9565b3373ffffffffffffffffffffffffffffffffffffffff166000803373ffffffffffffffffffffffffffffffffffffffff1673ffffffffffffffffffffffffffffffffffffffff16815260200190815260200160002060000160009054906101000a900473ffffffffffffffffffffffffffffffffffffffff1673ffffffffffffffffffffffffffffffffffffffff1603610390576040518060400160405280600781526020017f70617469656e740000000000000000000000000000000000000000000000000081525090506103c9565b6040518060400160405280600781526020017f756e6b6e6f776e0000000000000000000000000000000000000000000000000081525090505b90565b3373ffffffffffffffffffffffffffffffffffffffff16600160003373ffffffffffffffffffffffffffffffffffffffff1673ffffffffffffffffffffffffffffffffffffffff16815260200190815260200160002060000160009054906101000a900473ffffffffffffffffffffffffffffffffffffffff1673ffffffffffffffffffffffffffffffffffffffff161461049c576040517f08c379a0000000000000000000000000000000000000000000000000000000008152600401610493906117bc565b60405180910390fd5b808073ffffffffffffffffffffffffffffffffffffffff166000808373ffffffffffffffffffffffffffffffffffffffff1673ffffffffffffffffffffffffffffffffffffffff16815260200190815260200160002060000160009054906101000a900473ffffffffffffffffffffffffffffffffffffffff1673ffffffffffffffffffffffffffffffffffffffff161461056c576040517f08c379a000000000000000000000000000000000000000000000000000000000815260040161056390611828565b60405180910390fd5b60006040518060a001604052808681526020018581526020018473ffffffffffffffffffffffffffffffffffffffff1681526020013373ffffffffffffffffffffffffffffffffffffffff1681526020014281525090506000808473ffffffffffffffffffffffffffffffffffffffff1673ffffffffffffffffffffffffffffffffffffffff168152602001908152602001600020600101819080600181540180825580915050600190039060005260206000209060050201600090919091909150600082015181600001908051906020019061064a929190611180565b506020820151816001019080519060200190610667929190611180565b5060408201518160020160006101000a81548173ffffffffffffffffffffffffffffffffffffffff021916908373ffffffffffffffffffffffffffffffffffffffff16021790555060608201518160030160006101000a81548173ffffffffffffffffffffffffffffffffffffffff021916908373ffffffffffffffffffffffffffffffffffffffff1602179055506080820151816004015550507f79439a93ba0b8067e556b3942a78ac58d991c58e2e23041c4e7aa1c446fc118885843360405161073593929190611848565b60405180910390a15050505050565b3373ffffffffffffffffffffffffffffffffffffffff16600160003373ffffffffffffffffffffffffffffffffffffffff1673ffffffffffffffffffffffffffffffffffffffff16815260200190815260200160002060000160009054906101000a900473ffffffffffffffffffffffffffffffffffffffff1673ffffffffffffffffffffffffffffffffffffffff1614610814576040517f08c379a000000000000000000000000000000000000000000000000000000000815260040161080b906117bc565b60405180910390fd5b8073ffffffffffffffffffffffffffffffffffffffff166000808373ffffffffffffffffffffffffffffffffffffffff1673ffffffffffffffffffffffffffffffffffffffff16815260200190815260200160002060000160009054906101000a900473ffffffffffffffffffffffffffffffffffffffff1673ffffffffffffffffffffffffffffffffffffffff16036108e3576040517f08c379a00000000000000000000000000000000000000000000000000000000081526004016108da906118d2565b60405180910390fd5b806000808373ffffffffffffffffffffffffffffffffffffffff1673ffffffffffffffffffffffffffffffffffffffff16815260200190815260200160002060000160006101000a81548173ffffffffffffffffffffffffffffffffffffffff021916908373ffffffffffffffffffffffffffffffffffffffff1602179055507fa58cff07db0adda3ab7a40bd2f18ab57210bf38391a52ffd2e8eee6b8bdec71a8160405161099291906112d1565b60405180910390a150565b3373ffffffffffffffffffffffffffffffffffffffff16600160003373ffffffffffffffffffffffffffffffffffffffff1673ffffffffffffffffffffffffffffffffffffffff16815260200190815260200160002060000160009054906101000a900473ffffffffffffffffffffffffffffffffffffffff1673ffffffffffffffffffffffffffffffffffffffff1603610a6d576040517f08c379a0000000000000000000000000000000000000000000000000000000008152600401610a649061193e565b60405180910390fd5b33600160003373ffffffffffffffffffffffffffffffffffffffff1673ffffffffffffffffffffffffffffffffffffffff16815260200190815260200160002060000160006101000a81548173ffffffffffffffffffffffffffffffffffffffff021916908373ffffffffffffffffffffffffffffffffffffffff1602179055507f69908b2e63170aa89ef89719bbe3b4c92cccc38653968ab25f4464eff7c28ac833604051610b1d91906112d1565b60405180910390a1565b60003373ffffffffffffffffffffffffffffffffffffffff16600160003373ffffffffffffffffffffffffffffffffffffffff1673ffffffffffffffffffffffffffffffffffffffff16815260200190815260200160002060000160009054906101000a900473ffffffffffffffffffffffffffffffffffffffff1673ffffffffffffffffffffffffffffffffffffffff1614610bf9576040517f08c379a0000000000000000000000000000000000000000000000000000000008152600401610bf0906117bc565b60405180910390fd5b8173ffffffffffffffffffffffffffffffffffffffff166000808473ffffffffffffffffffffffffffffffffffffffff1673ffffffffffffffffffffffffffffffffffffffff16815260200190815260200160002060000160009054906101000a900473ffffffffffffffffffffffffffffffffffffffff1673ffffffffffffffffffffffffffffffffffffffff16149050919050565b60603373ffffffffffffffffffffffffffffffffffffffff16600160003373ffffffffffffffffffffffffffffffffffffffff1673ffffffffffffffffffffffffffffffffffffffff16815260200190815260200160002060000160009054906101000a900473ffffffffffffffffffffffffffffffffffffffff1673ffffffffffffffffffffffffffffffffffffffff161480610dba57503373ffffffffffffffffffffffffffffffffffffffff166000803373ffffffffffffffffffffffffffffffffffffffff1673ffffffffffffffffffffffffffffffffffffffff16815260200190815260200160002060000160009054906101000a900473ffffffffffffffffffffffffffffffffffffffff1673ffffffffffffffffffffffffffffffffffffffff16145b610df9576040517f08c379a0000000000000000000000000000000000000000000000000000000008152600401610df0906119aa565b60405180910390fd5b818073ffffffffffffffffffffffffffffffffffffffff166000808373ffffffffffffffffffffffffffffffffffffffff1673ffffffffffffffffffffffffffffffffffffffff16815260200190815260200160002060000160009054906101000a900473ffffffffffffffffffffffffffffffffffffffff1673ffffffffffffffffffffffffffffffffffffffff1614610ec9576040517f08c379a0000000000000000000000000000000000000000000000000000000008152600401610ec090611828565b60405180910390fd5b6000808473ffffffffffffffffffffffffffffffffffffffff1673ffffffffffffffffffffffffffffffffffffffff168152602001908152602001600020600101805480602002602001604051908101604052809291908181526020016000905b8282101561113657838290600052602060002090600502016040518060a0016040529081600082018054610f5d906119f9565b80601f0160208091040260200160405190810160405280929190818152602001828054610f89906119f9565b8015610fd65780601f10610fab57610100808354040283529160200191610fd6565b820191906000526020600020905b815481529060010190602001808311610fb957829003601f168201915b50505050508152602001600182018054610fef906119f9565b80601f016020809104026020016040519081016040528092919081815260200182805461101b906119f9565b80156110685780601f1061103d57610100808354040283529160200191611068565b820191906000526020600020905b81548152906001019060200180831161104b57829003601f168201915b505050505081526020016002820160009054906101000a900473ffffffffffffffffffffffffffffffffffffffff1673ffffffffffffffffffffffffffffffffffffffff1673ffffffffffffffffffffffffffffffffffffffff1681526020016003820160009054906101000a900473ffffffffffffffffffffffffffffffffffffffff1673ffffffffffffffffffffffffffffffffffffffff1673ffffffffffffffffffffffffffffffffffffffff16815260200160048201548152505081526020019060010190610f2a565b50505050915050919050565b60016020528060005260406000206000915090508060000160009054906101000a900473ffffffffffffffffffffffffffffffffffffffff16905081565b82805461118c906119f9565b90600052602060002090601f0160209004810192826111ae57600085556111f5565b82601f106111c757805160ff19168380011785556111f5565b828001600101855582156111f5579182015b828111156111f45782518255916020019190600101906111d9565b5b5090506112029190611206565b5090565b5b8082111561121f576000816000905550600101611207565b5090565b6000604051905090565b600080fd5b600080fd5b600073ffffffffffffffffffffffffffffffffffffffff82169050919050565b600061126282611237565b9050919050565b61127281611257565b811461127d57600080fd5b50565b60008135905061128f81611269565b92915050565b6000602082840312156112ab576112aa61122d565b5b60006112b984828501611280565b91505092915050565b6112cb81611257565b82525050565b60006020820190506112e660008301846112c2565b92915050565b600081519050919050565b600082825260208201905092915050565b60005b8381101561132657808201518184015260208101905061130b565b83811115611335576000848401525b50505050565b6000601f19601f8301169050919050565b6000611357826112ec565b61136181856112f7565b9350611371818560208601611308565b61137a8161133b565b840191505092915050565b6000602082019050818103600083015261139f818461134c565b905092915050565b600080fd5b600080fd5b7f4e487b7100000000000000000000000000000000000000000000000000000000600052604160045260246000fd5b6113e98261133b565b810181811067ffffffffffffffff82111715611408576114076113b1565b5b80604052505050565b600061141b611223565b905061142782826113e0565b919050565b600067ffffffffffffffff821115611447576114466113b1565b5b6114508261133b565b9050602081019050919050565b82818337600083830152505050565b600061147f61147a8461142c565b611411565b90508281526020810184848401111561149b5761149a6113ac565b5b6114a684828561145d565b509392505050565b600082601f8301126114c3576114c26113a7565b5b81356114d384826020860161146c565b91505092915050565b6000806000606084860312156114f5576114f461122d565b5b600084013567ffffffffffffffff81111561151357611512611232565b5b61151f868287016114ae565b935050602084013567ffffffffffffffff8111156115405761153f611232565b5b61154c868287016114ae565b925050604061155d86828701611280565b9150509250925092565b60008115159050919050565b61157c81611567565b82525050565b60006020820190506115976000830184611573565b92915050565b600081519050919050565b600082825260208201905092915050565b6000819050602082019050919050565b600082825260208201905092915050565b60006115e5826112ec565b6115ef81856115c9565b93506115ff818560208601611308565b6116088161133b565b840191505092915050565b61161c81611257565b82525050565b6000819050919050565b61163581611622565b82525050565b600060a083016000830151848203600086015261165882826115da565b9150506020830151848203602086015261167282826115da565b91505060408301516116876040860182611613565b50606083015161169a6060860182611613565b5060808301516116ad608086018261162c565b508091505092915050565b60006116c4838361163b565b905092915050565b6000602082019050919050565b60006116e48261159d565b6116ee81856115a8565b935083602082028501611700856115b9565b8060005b8581101561173c578484038952815161171d85826116b8565b9450611728836116cc565b925060208a01995050600181019050611704565b50829750879550505050505092915050565b6000602082019050818103600083015261176881846116d9565b905092915050565b7f53656e646572206973206e6f74206120646f63746f7200000000000000000000600082015250565b60006117a66016836112f7565b91506117b182611770565b602082019050919050565b600060208201905081810360008301526117d581611799565b9050919050565b7f50617469656e7420646f6573206e6f7420657869737400000000000000000000600082015250565b60006118126016836112f7565b915061181d826117dc565b602082019050919050565b6000602082019050818103600083015261184181611805565b9050919050565b60006060820190508181036000830152611862818661134c565b905061187160208301856112c2565b61187e60408301846112c2565b949350505050565b7f546869732070617469656e7420616c7265616479206578697374732e00000000600082015250565b60006118bc601c836112f7565b91506118c782611886565b602082019050919050565b600060208201905081810360008301526118eb816118af565b9050919050565b7f5468697320646f63746f7220616c7265616479206578697374732e0000000000600082015250565b6000611928601b836112f7565b9150611933826118f2565b602082019050919050565b600060208201905081810360008301526119578161191b565b9050919050565b7f53656e64657220646f6573206e6f742065786973740000000000000000000000600082015250565b60006119946015836112f7565b915061199f8261195e565b602082019050919050565b600060208201905081810360008301526119c381611987565b9050919050565b7f4e487b7100000000000000000000000000000000000000000000000000000000600052602260045260246000fd5b60006002820490506001821680611a1157607f821691505b602082108103611a2457611a236119ca565b5b5091905056fea2646970667358221220f547e9e79f911a1cdab5485b9fbb2ff4c21f9e3be4bc558c4656b8a57d1c32fe64736f6c634300080e0033",
  "immutableReferences": {},
  "source": "pragma solidity >=0.4.22 <0.9.0;\n\ncontract EHR { \n  struct Record { \n    string cid;\n    string fileName; \n    address patientId;\n    address doctorId;\n    uint256 timeAdded;\n  }\n\n  struct Patient {\n    address id;\n    Record[] records;\n  }\n\n  struct Doctor {\n    address id;\n  }\n\n  mapping (address => Patient) public patients;\n  mapping (address => Doctor) public doctors;\n\n  event PatientAdded(address patientId);\n  event DoctorAdded(address doctorId);\n  event RecordAdded(string cid, address patientId, address doctorId); \n\n  // modifiers\n\n  modifier senderExists {\n    require(doctors[msg.sender].id == msg.sender || patients[msg.sender].id == msg.sender, \"Sender does not exist\");\n    _;\n  }\n\n  modifier patientExists(address patientId) {\n    require(patients[patientId].id == patientId, \"Patient does not exist\");\n    _;\n  }\n\n  modifier senderIsDoctor {\n    require(doctors[msg.sender].id == msg.sender, \"Sender is not a doctor\");\n    _;\n  }\n\n  // functions\n\n  function addPatient(address _patientId) public senderIsDoctor {\n    require(patients[_patientId].id != _patientId, \"This patient already exists.\");\n    patients[_patientId].id = _patientId;\n\n    emit PatientAdded(_patientId);\n  }\n\n  function addDoctor() public {\n    require(doctors[msg.sender].id != msg.sender, \"This doctor already exists.\");\n    doctors[msg.sender].id = msg.sender;\n\n    emit DoctorAdded(msg.sender);\n  }\n\n  function addRecord(string memory _cid, string memory _fileName, address _patientId) public senderIsDoctor patientExists(_patientId) {\n    Record memory record = Record(_cid, _fileName, _patientId, msg.sender, block.timestamp);\n    patients[_patientId].records.push(record);\n\n    emit RecordAdded(_cid, _patientId, msg.sender);\n  } \n\n  function getRecords(address _patientId) public view senderExists patientExists(_patientId) returns (Record[] memory) {\n    return patients[_patientId].records;\n  } \n\n  function getSenderRole() public view returns (string memory) {\n    if (doctors[msg.sender].id == msg.sender) {\n      return \"doctor\";\n    } else if (patients[msg.sender].id == msg.sender) {\n      return \"patient\";\n    } else {\n      return \"unknown\";\n    }\n  }\n\n  function getPatientExists(address _patientId) public view senderIsDoctor returns (bool) {\n    return patients[_patientId].id == _patientId;\n  }\n} ",
  "sourcePath": "D:\\Solidity\\EHR Main\\truffle\\contracts\\EHR.sol",
  "compiler": {
    "name": "solc",
    "version": "0.8.14+commit.80d49f37.Emscripten.clang"
  },
  "schemaVersion": "3.4.12",
  "updatedAt": "2023-04-21T15:18:30.616Z",
  "networkType": "ethereum",
  "devdoc": {
    "kind": "dev",
    "methods": {},
    "version": 1
  },
  "userdoc": {
    "kind": "user",
    "methods": {},
    "version": 1
  }
}